:1004180020202020202020202020202020202020D4
:0104280000D3
:08043800022400000222000072
:100213001204041200CD8E248F25E525452460F3B6
:10022300E52565237004E5246522601A7BFF7A04C3
:1002330079187D017F0112037B7BFF7A0479187D96
:10024300017F0212037BD3E5259408E5246480949F
:1002530080501A852422852523E52525E014FD7584
:100263000C02AB25AA247F011203BC80A68524229D
:10027300852523E52525E0FFE52433FEEF24FFFF55
:10028300EE34FFFE7C007D10120097750C02AB2547
:0A029300AA247F021203BC02021627
:040440000226000090
:1000CD007590F0E59064F070030201827F147E005C
:1000DD001203EFE59064F0700302017D7590F0AFAF
:1000ED0090EF2450601424E0601824F0601C2470FC
:1000FD00701E75260075270180167526007527025E
:10010D00800E752600752703800675260075270459
:10011D0075900FAF90EF24F5601C24FE60291460DC
:10012D003E2407704BAE26E5277802C333CE33CE7F
:10013D00D8F924FD8020AE26E5277802C333CE33CF
:10014D00CED8F924FE800FAE26E5277802C333CE34
:10015D0033CED8F924FFF527EE34FFF5268011AE06
:10016D0026E5277802C333CE33CED8F9F5278E2670
:0A017D00E590B40FFBAE26AF272279
:1003EF00EF1FAC0670011E4C600A7D027CEFDCFE35
:0403FF00DDFC80ECB5
:0104030022D6
:06042900C2A58F80D2A7DE
:08042F007F027EEFDEFEDFFC20
:0104370022A2
:0A044500C2A6120429C2A702042F68
:10039E00CFCDCFCECCCE1200427C007D0A120042D1
:0403AE00ED2430FF0B
:0A03B200D2A6120429C2A702042FEC
:1003D900AE07BE0104ED148006BE0209ED243F44B8
:0603E90080FF1204452212
:100404007F381204457F0C1204457F061204457F91
:040414000102044598
:0A044F00AC031203D9AF040203B29C
:06037B008B088A09890AC3
:100381001203D9E4FDAB08AA09A90A8D827583007D
:0C039100120003FF60061203B20D80E9A9
:01039D00223D
:0C0348007F0AEA24FFFDE434FFFC7E0085
:080354008E0D8F0E8C0F8D1031
:10035C007F017E00E4FBEBC39510E50F6480F8741D
:0E036C008098500AAC0DAD0E1200300B80E8E8
:01037A002260
:0403BC008A0A8B0B13
:1003C0001203D9AA0CEAD39400400D120348AC0AD8
:0803D000AD0B12039E1A80ED33
:0103D8002202
:10029D001203D9C3EA64809480400B7F2B1203B202
:1002AD008A168B17800E7F2D1203B2C3E49BF517B0
:1002BD00E49AF516AA15EAD39400400D120348AC42
:0902CD0016AD1712039E1A80ED14
:0102D6002205
:0402D7008A1A8B1BD9
:1002DB001203D9AA1CEAD3940040297F1012034AB7
:1002EB00AC1AAD1BCFCDCFCECCCE120042EF540FFC
:1002FB00FEC3940AEE5004243080022437FF12030D
:04030B00B21A80D1D1
:01030F0022CB
:040310008A1F8B2095
:100314001203D9AA21EAD394004028EA24FFFDE479
:1003240034FFFC7F027E00120354AC1FAD20CFCDFE
:10033400CFCECCCE120042EF54012430FF1203B2D0
:030344001A80D24A
:010347002293
:0300000002018773
:0C018700787FE4F6D8FD7581270201CED8
:10000300BB010CE58229F582E5833AF583E02250B2
:1000130006E92582F8E622BBFE06E92582F8E222FC
:0D002300E58229F582E5833AF583E4932216
:10003000EF8DF0A4A8F0CF8CF0A428CE8DF0A42EE4
:02004000FE229E
:10004200BC000BBE0029EF8DF084FFADF022E4CCA2
:10005200F875F008EF2FFFEE33FEEC33FCEE9DEC6B
:10006200984005FCEE9DFE0FD5F0E9E4CEFD22EDB1
:10007200F8F5F0EE8420D21CFEADF075F008EF2FFB
:10008200FFED33FD4007985006D5F0F222C398FDEC
:050092000FD5F0EA2289
:10009700C2D5EC30E709B2D5E4C39DFDE49CFCEE84
:1000A70030E715B2D5E4C39FFFE49EFE120042C3BA
:1000B700E49DFDE49CFC800312004230D507C3E4B5
:0600C7009FFFE49EFE22F3
:10019300020213E493A3F8E493A34003F68001F26D
:1001A30008DFF48029E493A3F85407240CC8C3336D
:1001B300C4540F4420C8834004F456800146F6DF3C
:1001C300E4800B0102040810204080900438E47E90
:1001D300019360BCA3FF543F30E509541FFEE49331
:1001E300A360010ECF54C025E060A840B8E493A3F8
:1001F300FAE493A3F8E493A3C8C582C8CAC583CA23
:10020300F0A3C8C582C8CAC583CADFE9DEE780BEDA
:0104440000B7
:00000001FF
